{
  "_format": "hh-sol-artifact-1",
  "contractName": "QuoteStorage",
  "sourceName": "contracts/QuoteStorageContract.sol",
  "abi": [
    {
      "inputs": [],
      "stateMutability": "nonpayable",
      "type": "constructor"
    },
    {
      "anonymous": false,
      "inputs": [
        {
          "indexed": false,
          "internalType": "uint256",
          "name": "id",
          "type": "uint256"
        },
        {
          "indexed": false,
          "internalType": "bool",
          "name": "completed",
          "type": "bool"
        }
      ],
      "name": "QuoteCompleted",
      "type": "event"
    },
    {
      "anonymous": false,
      "inputs": [
        {
          "indexed": false,
          "internalType": "uint256",
          "name": "id",
          "type": "uint256"
        },
        {
          "indexed": false,
          "internalType": "string",
          "name": "author",
          "type": "string"
        },
        {
          "indexed": false,
          "internalType": "string",
          "name": "quoteText",
          "type": "string"
        },
        {
          "indexed": false,
          "internalType": "bool",
          "name": "completed",
          "type": "bool"
        }
      ],
      "name": "QuoteCreated",
      "type": "event"
    },
    {
      "anonymous": false,
      "inputs": [
        {
          "indexed": false,
          "internalType": "uint256",
          "name": "id",
          "type": "uint256"
        },
        {
          "indexed": false,
          "internalType": "string",
          "name": "author",
          "type": "string"
        },
        {
          "indexed": false,
          "internalType": "string",
          "name": "quoteText",
          "type": "string"
        },
        {
          "indexed": false,
          "internalType": "bool",
          "name": "completed",
          "type": "bool"
        }
      ],
      "name": "QuoteDeleted",
      "type": "event"
    },
    {
      "inputs": [
        {
          "internalType": "string",
          "name": "_author",
          "type": "string"
        },
        {
          "internalType": "string",
          "name": "_quoteText",
          "type": "string"
        }
      ],
      "name": "createQuote",
      "outputs": [],
      "stateMutability": "nonpayable",
      "type": "function"
    },
    {
      "inputs": [
        {
          "internalType": "uint256",
          "name": "_id",
          "type": "uint256"
        }
      ],
      "name": "deleteQuote",
      "outputs": [],
      "stateMutability": "nonpayable",
      "type": "function"
    },
    {
      "inputs": [],
      "name": "donate",
      "outputs": [],
      "stateMutability": "payable",
      "type": "function"
    },
    {
      "inputs": [
        {
          "internalType": "uint256",
          "name": "_index",
          "type": "uint256"
        }
      ],
      "name": "getQuote",
      "outputs": [
        {
          "internalType": "string",
          "name": "",
          "type": "string"
        },
        {
          "internalType": "string",
          "name": "",
          "type": "string"
        }
      ],
      "stateMutability": "view",
      "type": "function"
    },
    {
      "inputs": [],
      "name": "getQuoteCount",
      "outputs": [
        {
          "internalType": "uint256",
          "name": "",
          "type": "uint256"
        }
      ],
      "stateMutability": "view",
      "type": "function"
    },
    {
      "inputs": [],
      "name": "getTotalDonations",
      "outputs": [
        {
          "internalType": "uint256",
          "name": "",
          "type": "uint256"
        }
      ],
      "stateMutability": "view",
      "type": "function"
    },
    {
      "inputs": [],
      "name": "owner",
      "outputs": [
        {
          "internalType": "address",
          "name": "",
          "type": "address"
        }
      ],
      "stateMutability": "view",
      "type": "function"
    },
    {
      "inputs": [],
      "name": "quoteCount",
      "outputs": [
        {
          "internalType": "uint256",
          "name": "",
          "type": "uint256"
        }
      ],
      "stateMutability": "view",
      "type": "function"
    },
    {
      "inputs": [
        {
          "internalType": "uint256",
          "name": "",
          "type": "uint256"
        }
      ],
      "name": "quotes",
      "outputs": [
        {
          "internalType": "uint256",
          "name": "id",
          "type": "uint256"
        },
        {
          "internalType": "string",
          "name": "author",
          "type": "string"
        },
        {
          "internalType": "string",
          "name": "quoteText",
          "type": "string"
        },
        {
          "internalType": "bool",
          "name": "completed",
          "type": "bool"
        },
        {
          "internalType": "bool",
          "name": "exists",
          "type": "bool"
        }
      ],
      "stateMutability": "view",
      "type": "function"
    },
    {
      "inputs": [
        {
          "internalType": "uint256",
          "name": "_id",
          "type": "uint256"
        }
      ],
      "name": "toggleCompleted",
      "outputs": [],
      "stateMutability": "nonpayable",
      "type": "function"
    },
    {
      "inputs": [],
      "name": "totalDonations",
      "outputs": [
        {
          "internalType": "uint256",
          "name": "",
          "type": "uint256"
        }
      ],
      "stateMutability": "view",
      "type": "function"
    }
  ],
  "bytecode": "0x6080604052600060015560006003553480156200001b57600080fd5b50336000806101000a81548173ffffffffffffffffffffffffffffffffffffffff021916908373ffffffffffffffffffffffffffffffffffffffff160217905550620000bc6040518060400160405280601081526020017f536e6f6f7020446f67677920446f6767000000000000000000000000000000008152506040518060800160405280604a81526020016200196e604a9139620000c260201b60201c565b620004ba565b60016000815480929190620000d790620003fd565b91905055506040518060a0016040528060015481526020018381526020018281526020016001151581526020016001151581525060026000600154815260200190815260200160002060008201518160000155602082015181600101908051906020019062000148929190620001f1565b50604082015181600201908051906020019062000167929190620001f1565b5060608201518160030160006101000a81548160ff02191690831515021790555060808201518160030160016101000a81548160ff0219169083151502179055509050507f3571f069089288c8687cf7d73ce1733a5ac65b67427ba4b72f8c0e63ffba760f60015483836000604051620001e5949392919062000304565b60405180910390a15050565b828054620001ff90620003c7565b90600052602060002090601f0160209004810192826200022357600085556200026f565b82601f106200023e57805160ff19168380011785556200026f565b828001600101855582156200026f579182015b828111156200026e57825182559160200191906001019062000251565b5b5090506200027e919062000282565b5090565b5b808211156200029d57600081600090555060010162000283565b5090565b620002ac816200037b565b82525050565b6000620002bf826200035f565b620002cb81856200036a565b9350620002dd81856020860162000391565b620002e881620004a9565b840191505092915050565b620002fe8162000387565b82525050565b60006080820190506200031b6000830187620002f3565b81810360208301526200032f8186620002b2565b90508181036040830152620003458185620002b2565b9050620003566060830184620002a1565b95945050505050565b600081519050919050565b600082825260208201905092915050565b60008115159050919050565b6000819050919050565b60005b83811015620003b157808201518184015260208101905062000394565b83811115620003c1576000848401525b50505050565b60006002820490506001821680620003e057607f821691505b60208210811415620003f757620003f66200047a565b5b50919050565b60006200040a8262000387565b91507fffffffffffffffffffffffffffffffffffffffffffffffffffffffffffffffff82141562000440576200043f6200044b565b5b600182019050919050565b7f4e487b7100000000000000000000000000000000000000000000000000000000600052601160045260246000fd5b7f4e487b7100000000000000000000000000000000000000000000000000000000600052602260045260246000fd5b6000601f19601f8301169050919050565b6114a480620004ca6000396000f3fe60806040526004361061009c5760003560e01c8063a61cf0d411610064578063a61cf0d414610176578063ac8f5010146101b7578063b662311e146101e0578063cf39918e14610209578063de2ed89314610247578063ed88c68e146102725761009c565b80630cf416f4146100a1578063455f5024146100cc5780634d1d1061146100f5578063777c658f146101205780638da5cb5b1461014b575b600080fd5b3480156100ad57600080fd5b506100b661027c565b6040516100c39190611076565b60405180910390f35b3480156100d857600080fd5b506100f360048036038101906100ee9190610d1a565b610286565b005b34801561010157600080fd5b5061010a610428565b6040516101179190611076565b60405180910390f35b34801561012c57600080fd5b5061013561042e565b6040516101429190611076565b60405180910390f35b34801561015757600080fd5b50610160610438565b60405161016d9190610fa4565b60405180910390f35b34801561018257600080fd5b5061019d60048036038101906101989190610d1a565b61045c565b6040516101ae95949392919061110d565b60405180910390f35b3480156101c357600080fd5b506101de60048036038101906101d99190610d1a565b6105bc565b005b3480156101ec57600080fd5b5061020760048036038101906102029190610cae565b6107f5565b005b34801561021557600080fd5b50610230600480360381019061022b9190610d1a565b61091c565b60405161023e929190610fbf565b60405180910390f35b34801561025357600080fd5b5061025c610a60565b6040516102699190611076565b60405180910390f35b61027a610a66565b005b6000600154905090565b60008054906101000a900473ffffffffffffffffffffffffffffffffffffffff1673ffffffffffffffffffffffffffffffffffffffff163373ffffffffffffffffffffffffffffffffffffffff1614610314576040517f08c379a000000000000000000000000000000000000000000000000000000000815260040161030b90611056565b60405180910390fd5b6002600082815260200190815260200160002060030160019054906101000a900460ff16610377576040517f08c379a000000000000000000000000000000000000000000000000000000000815260040161036e90611036565b60405180910390fd5b6002600082815260200190815260200160002060030160009054906101000a900460ff16156002600083815260200190815260200160002060030160006101000a81548160ff0219169083151502179055507fcec54c9c3e071c6b82910f6ede4cf809fd63968ddcb3f5b0286c4fcd21f6b113816002600084815260200190815260200160002060030160009054906101000a900460ff1660405161041d929190611091565b60405180910390a150565b60015481565b6000600354905090565b60008054906101000a900473ffffffffffffffffffffffffffffffffffffffff1681565b60026020528060005260406000206000915090508060000154908060010180546104859061133e565b80601f01602080910402602001604051908101604052809291908181526020018280546104b19061133e565b80156104fe5780601f106104d3576101008083540402835291602001916104fe565b820191906000526020600020905b8154815290600101906020018083116104e157829003601f168201915b5050505050908060020180546105139061133e565b80601f016020809104026020016040519081016040528092919081815260200182805461053f9061133e565b801561058c5780601f106105615761010080835404028352916020019161058c565b820191906000526020600020905b81548152906001019060200180831161056f57829003601f168201915b5050505050908060030160009054906101000a900460ff16908060030160019054906101000a900460ff16905085565b60008054906101000a900473ffffffffffffffffffffffffffffffffffffffff1673ffffffffffffffffffffffffffffffffffffffff163373ffffffffffffffffffffffffffffffffffffffff161461064a576040517f08c379a000000000000000000000000000000000000000000000000000000000815260040161064190611056565b60405180910390fd5b6040518060400160405280600881526020017f4c6f6e67476f6e650000000000000000000000000000000000000000000000008152506002600083815260200190815260200160002060010190805190602001906106a9929190610b8e565b506040518060400160405280601b81526020017f51756f746544656c657465644279436f6e74726163744f776e65720000000000815250600260008381526020019081526020016000206002019080519060200190610709929190610b8e565b5060006002600083815260200190815260200160002060030160006101000a81548160ff02191690831515021790555060006002600083815260200190815260200160002060030160016101000a81548160ff0219169083151502179055507f35ea6caab3613bf6d8c9c1e2dc8f93f27a73ef2708b4d32cfbe2d1cef7621a238160026000848152602001908152602001600020600101600260008581526020019081526020016000206002016002600086815260200190815260200160002060030160009054906101000a900460ff166040516107ea949392919061116e565b60405180910390a150565b6001600081548092919061080890611370565b91905055506040518060a00160405280600154815260200183815260200182815260200160011515815260200160011515815250600260006001548152602001908152602001600020600082015181600001556020820151816001019080519060200190610877929190610b8e565b506040820151816002019080519060200190610894929190610b8e565b5060608201518160030160006101000a81548160ff02191690831515021790555060808201518160030160016101000a81548160ff0219169083151502179055509050507f3571f069089288c8687cf7d73ce1733a5ac65b67427ba4b72f8c0e63ffba760f6001548383600060405161091094939291906110ba565b60405180910390a15050565b6060806000600260008581526020019081526020016000209050806001018160020181805461094a9061133e565b80601f01602080910402602001604051908101604052809291908181526020018280546109769061133e565b80156109c35780601f10610998576101008083540402835291602001916109c3565b820191906000526020600020905b8154815290600101906020018083116109a657829003601f168201915b505050505091508080546109d69061133e565b80601f0160208091040260200160405190810160405280929190818152602001828054610a029061133e565b8015610a4f5780601f10610a2457610100808354040283529160200191610a4f565b820191906000526020600020905b815481529060010190602001808311610a3257829003601f168201915b505050505090509250925050915091565b60035481565b6000341415610aaa576040517f08c379a0000000000000000000000000000000000000000000000000000000008152600401610aa190610ff6565b60405180910390fd5b60008060009054906101000a900473ffffffffffffffffffffffffffffffffffffffff1673ffffffffffffffffffffffffffffffffffffffff1634604051610af190610f8f565b60006040518083038185875af1925050503d8060008114610b2e576040519150601f19603f3d011682016040523d82523d6000602084013e610b33565b606091505b5050905080610b77576040517f08c379a0000000000000000000000000000000000000000000000000000000008152600401610b6e90611016565b60405180910390fd5b34600354610b85919061125e565b60038190555050565b828054610b9a9061133e565b90600052602060002090601f016020900481019282610bbc5760008555610c03565b82601f10610bd557805160ff1916838001178555610c03565b82800160010185558215610c03579182015b82811115610c02578251825591602001919060010190610be7565b5b509050610c109190610c14565b5090565b5b80821115610c2d576000816000905550600101610c15565b5090565b6000610c44610c3f846111f2565b6111c1565b905082815260208101848484011115610c5c57600080fd5b610c678482856112fc565b509392505050565b600082601f830112610c8057600080fd5b8135610c90848260208601610c31565b91505092915050565b600081359050610ca881611457565b92915050565b60008060408385031215610cc157600080fd5b600083013567ffffffffffffffff811115610cdb57600080fd5b610ce785828601610c6f565b925050602083013567ffffffffffffffff811115610d0457600080fd5b610d1085828601610c6f565b9150509250929050565b600060208284031215610d2c57600080fd5b6000610d3a84828501610c99565b91505092915050565b610d4c816112b4565b82525050565b610d5b816112c6565b82525050565b6000610d6c82611237565b610d76818561124d565b9350610d8681856020860161130b565b610d8f81611446565b840191505092915050565b60008154610da78161133e565b610db1818661124d565b94506001821660008114610dcc5760018114610dde57610e11565b60ff1983168652602086019350610e11565b610de785611222565b60005b83811015610e0957815481890152600182019150602081019050610dea565b808801955050505b50505092915050565b6000610e27602d8361124d565b91507f596f75206e65656420746f20646f6e6174652061206365727461696e20616d6f60008301527f756e74206f66206d6f6e657921000000000000000000000000000000000000006020830152604082019050919050565b6000610e8d60148361124d565b91507f4661696c656420746f2073656e64206d6f6e65790000000000000000000000006000830152602082019050919050565b6000610ecd60148361124d565b91507f51756f746520646f6573206e6f742065786973740000000000000000000000006000830152602082019050919050565b6000610f0d60388361124d565b91507f596f75206d75737420626520746865206f776e6572206f662074686520636f6e60008301527f747261637420746f2064656c65746520612071756f74652100000000000000006020830152604082019050919050565b6000610f73600083611242565b9150600082019050919050565b610f89816112f2565b82525050565b6000610f9a82610f66565b9150819050919050565b6000602082019050610fb96000830184610d43565b92915050565b60006040820190508181036000830152610fd98185610d61565b90508181036020830152610fed8184610d61565b90509392505050565b6000602082019050818103600083015261100f81610e1a565b9050919050565b6000602082019050818103600083015261102f81610e80565b9050919050565b6000602082019050818103600083015261104f81610ec0565b9050919050565b6000602082019050818103600083015261106f81610f00565b9050919050565b600060208201905061108b6000830184610f80565b92915050565b60006040820190506110a66000830185610f80565b6110b36020830184610d52565b9392505050565b60006080820190506110cf6000830187610f80565b81810360208301526110e18186610d61565b905081810360408301526110f58185610d61565b90506111046060830184610d52565b95945050505050565b600060a0820190506111226000830188610f80565b81810360208301526111348187610d61565b905081810360408301526111488186610d61565b90506111576060830185610d52565b6111646080830184610d52565b9695505050505050565b60006080820190506111836000830187610f80565b81810360208301526111958186610d9a565b905081810360408301526111a98185610d9a565b90506111b86060830184610d52565b95945050505050565b6000604051905081810181811067ffffffffffffffff821117156111e8576111e7611417565b5b8060405250919050565b600067ffffffffffffffff82111561120d5761120c611417565b5b601f19601f8301169050602081019050919050565b60008190508160005260206000209050919050565b600081519050919050565b600081905092915050565b600082825260208201905092915050565b6000611269826112f2565b9150611274836112f2565b9250827fffffffffffffffffffffffffffffffffffffffffffffffffffffffffffffffff038211156112a9576112a86113b9565b5b828201905092915050565b60006112bf826112d2565b9050919050565b60008115159050919050565b600073ffffffffffffffffffffffffffffffffffffffff82169050919050565b6000819050919050565b82818337600083830152505050565b60005b8381101561132957808201518184015260208101905061130e565b83811115611338576000848401525b50505050565b6000600282049050600182168061135657607f821691505b6020821081141561136a576113696113e8565b5b50919050565b600061137b826112f2565b91507fffffffffffffffffffffffffffffffffffffffffffffffffffffffffffffffff8214156113ae576113ad6113b9565b5b600182019050919050565b7f4e487b7100000000000000000000000000000000000000000000000000000000600052601160045260246000fd5b7f4e487b7100000000000000000000000000000000000000000000000000000000600052602260045260246000fd5b7f4e487b7100000000000000000000000000000000000000000000000000000000600052604160045260246000fd5b6000601f19601f8301169050919050565b611460816112f2565b811461146b57600080fd5b5056fea26469706673582212207ac1e5bf3dc20a61e0068eeb3c84d46e5b7e118cf36851d0193f92a6d32f30cb64736f6c63430008000033496620796f752073746f702061742067656e6572616c206d6174682c20796f75277265206f6e6c7920676f696e6720746f206d616b652067656e6572616c206d617468206d6f6e65792e",
  "linkReferences": {},
  "deployedLinkReferences": {}
}